{
  "_format": "hh-sol-artifact-1",
  "contractName": "HashedPersona",
  "sourceName": "contracts/HashedPersona.sol",
  "abi": [
    {
      "inputs": [],
      "stateMutability": "nonpayable",
      "type": "constructor"
    },
    {
      "anonymous": false,
      "inputs": [
        {
          "indexed": true,
          "internalType": "address",
          "name": "owner",
          "type": "address"
        },
        {
          "indexed": true,
          "internalType": "address",
          "name": "approved",
          "type": "address"
        },
        {
          "indexed": true,
          "internalType": "uint256",
          "name": "tokenId",
          "type": "uint256"
        }
      ],
      "name": "Approval",
      "type": "event"
    },
    {
      "anonymous": false,
      "inputs": [
        {
          "indexed": true,
          "internalType": "address",
          "name": "owner",
          "type": "address"
        },
        {
          "indexed": true,
          "internalType": "address",
          "name": "operator",
          "type": "address"
        },
        {
          "indexed": false,
          "internalType": "bool",
          "name": "approved",
          "type": "bool"
        }
      ],
      "name": "ApprovalForAll",
      "type": "event"
    },
    {
      "anonymous": false,
      "inputs": [
        {
          "indexed": true,
          "internalType": "uint256",
          "name": "tokenId",
          "type": "uint256"
        },
        {
          "indexed": false,
          "internalType": "uint256",
          "name": "collecitonId",
          "type": "uint256"
        },
        {
          "indexed": false,
          "internalType": "address payable",
          "name": "owner",
          "type": "address"
        },
        {
          "indexed": false,
          "internalType": "address payable",
          "name": "issuer",
          "type": "address"
        },
        {
          "indexed": false,
          "internalType": "uint256",
          "name": "tokenAmount",
          "type": "uint256"
        },
        {
          "indexed": false,
          "internalType": "uint256",
          "name": "tokenStatus",
          "type": "uint256"
        }
      ],
      "name": "TokenListedSuccess",
      "type": "event"
    },
    {
      "anonymous": false,
      "inputs": [
        {
          "indexed": true,
          "internalType": "address",
          "name": "from",
          "type": "address"
        },
        {
          "indexed": true,
          "internalType": "address",
          "name": "to",
          "type": "address"
        },
        {
          "indexed": true,
          "internalType": "uint256",
          "name": "tokenId",
          "type": "uint256"
        }
      ],
      "name": "Transfer",
      "type": "event"
    },
    {
      "stateMutability": "payable",
      "type": "fallback"
    },
    {
      "inputs": [
        {
          "internalType": "address",
          "name": "to",
          "type": "address"
        },
        {
          "internalType": "uint256",
          "name": "tokenId",
          "type": "uint256"
        }
      ],
      "name": "approve",
      "outputs": [],
      "stateMutability": "nonpayable",
      "type": "function"
    },
    {
      "inputs": [
        {
          "internalType": "address",
          "name": "owner",
          "type": "address"
        }
      ],
      "name": "balanceOf",
      "outputs": [
        {
          "internalType": "uint256",
          "name": "",
          "type": "uint256"
        }
      ],
      "stateMutability": "view",
      "type": "function"
    },
    {
      "inputs": [
        {
          "internalType": "uint256",
          "name": "tokenId",
          "type": "uint256"
        }
      ],
      "name": "collect",
      "outputs": [
        {
          "internalType": "bool",
          "name": "",
          "type": "bool"
        }
      ],
      "stateMutability": "payable",
      "type": "function"
    },
    {
      "inputs": [
        {
          "internalType": "uint256",
          "name": "collectionIds",
          "type": "uint256"
        }
      ],
      "name": "createToken",
      "outputs": [
        {
          "internalType": "uint256",
          "name": "",
          "type": "uint256"
        }
      ],
      "stateMutability": "payable",
      "type": "function"
    },
    {
      "inputs": [
        {
          "internalType": "string",
          "name": "collectionURI",
          "type": "string"
        },
        {
          "internalType": "uint256",
          "name": "amount",
          "type": "uint256"
        }
      ],
      "name": "createTokenCollection",
      "outputs": [
        {
          "internalType": "uint256",
          "name": "",
          "type": "uint256"
        }
      ],
      "stateMutability": "payable",
      "type": "function"
    },
    {
      "inputs": [
        {
          "internalType": "address",
          "name": "_issuer",
          "type": "address"
        }
      ],
      "name": "fetchItemsListed",
      "outputs": [
        {
          "components": [
            {
              "internalType": "uint256",
              "name": "tokenId",
              "type": "uint256"
            },
            {
              "internalType": "uint256",
              "name": "collecitonId",
              "type": "uint256"
            },
            {
              "internalType": "address payable",
              "name": "owner",
              "type": "address"
            },
            {
              "internalType": "address payable",
              "name": "issuer",
              "type": "address"
            },
            {
              "internalType": "uint256",
              "name": "tokenAmount",
              "type": "uint256"
            },
            {
              "internalType": "uint256",
              "name": "tokenStatus",
              "type": "uint256"
            }
          ],
          "internalType": "struct HashedPersona.ListedToken[]",
          "name": "",
          "type": "tuple[]"
        }
      ],
      "stateMutability": "view",
      "type": "function"
    },
    {
      "inputs": [],
      "name": "fetchMarketItems",
      "outputs": [
        {
          "components": [
            {
              "internalType": "uint256",
              "name": "tokenId",
              "type": "uint256"
            },
            {
              "internalType": "uint256",
              "name": "collecitonId",
              "type": "uint256"
            },
            {
              "internalType": "address payable",
              "name": "owner",
              "type": "address"
            },
            {
              "internalType": "address payable",
              "name": "issuer",
              "type": "address"
            },
            {
              "internalType": "uint256",
              "name": "tokenAmount",
              "type": "uint256"
            },
            {
              "internalType": "uint256",
              "name": "tokenStatus",
              "type": "uint256"
            }
          ],
          "internalType": "struct HashedPersona.ListedToken[]",
          "name": "",
          "type": "tuple[]"
        }
      ],
      "stateMutability": "view",
      "type": "function"
    },
    {
      "inputs": [
        {
          "internalType": "address",
          "name": "_owner",
          "type": "address"
        }
      ],
      "name": "fetchMyNFTs",
      "outputs": [
        {
          "components": [
            {
              "internalType": "uint256",
              "name": "tokenId",
              "type": "uint256"
            },
            {
              "internalType": "uint256",
              "name": "collecitonId",
              "type": "uint256"
            },
            {
              "internalType": "address payable",
              "name": "owner",
              "type": "address"
            },
            {
              "internalType": "address payable",
              "name": "issuer",
              "type": "address"
            },
            {
              "internalType": "uint256",
              "name": "tokenAmount",
              "type": "uint256"
            },
            {
              "internalType": "uint256",
              "name": "tokenStatus",
              "type": "uint256"
            }
          ],
          "internalType": "struct HashedPersona.ListedToken[]",
          "name": "",
          "type": "tuple[]"
        }
      ],
      "stateMutability": "view",
      "type": "function"
    },
    {
      "inputs": [
        {
          "internalType": "uint256",
          "name": "tokenId",
          "type": "uint256"
        }
      ],
      "name": "getApproved",
      "outputs": [
        {
          "internalType": "address",
          "name": "",
          "type": "address"
        }
      ],
      "stateMutability": "view",
      "type": "function"
    },
    {
      "inputs": [
        {
          "internalType": "uint256",
          "name": "tokenId",
          "type": "uint256"
        }
      ],
      "name": "getCollectedAmountFromTokenId",
      "outputs": [
        {
          "internalType": "uint256",
          "name": "",
          "type": "uint256"
        }
      ],
      "stateMutability": "view",
      "type": "function"
    },
    {
      "inputs": [
        {
          "internalType": "uint256",
          "name": "collectionId",
          "type": "uint256"
        }
      ],
      "name": "getCollectionForId",
      "outputs": [
        {
          "components": [
            {
              "internalType": "uint256",
              "name": "collecitonId",
              "type": "uint256"
            },
            {
              "internalType": "uint256",
              "name": "collecitonStartTokenId",
              "type": "uint256"
            },
            {
              "internalType": "address payable",
              "name": "issuer",
              "type": "address"
            },
            {
              "internalType": "string",
              "name": "collectionURI",
              "type": "string"
            },
            {
              "internalType": "uint256",
              "name": "maxSupply",
              "type": "uint256"
            },
            {
              "internalType": "uint256",
              "name": "numClaimed",
              "type": "uint256"
            }
          ],
          "internalType": "struct HashedPersona.ListedCollection",
          "name": "",
          "type": "tuple"
        }
      ],
      "stateMutability": "view",
      "type": "function"
    },
    {
      "inputs": [
        {
          "internalType": "uint256",
          "name": "tokenId",
          "type": "uint256"
        }
      ],
      "name": "getCollectionIdFromTokenId",
      "outputs": [
        {
          "internalType": "uint256",
          "name": "",
          "type": "uint256"
        }
      ],
      "stateMutability": "view",
      "type": "function"
    },
    {
      "inputs": [],
      "name": "getListPrice",
      "outputs": [
        {
          "internalType": "uint256",
          "name": "",
          "type": "uint256"
        }
      ],
      "stateMutability": "view",
      "type": "function"
    },
    {
      "inputs": [
        {
          "internalType": "uint256",
          "name": "tokenId",
          "type": "uint256"
        }
      ],
      "name": "getListedTokenForId",
      "outputs": [
        {
          "components": [
            {
              "internalType": "uint256",
              "name": "tokenId",
              "type": "uint256"
            },
            {
              "internalType": "uint256",
              "name": "collecitonId",
              "type": "uint256"
            },
            {
              "internalType": "address payable",
              "name": "owner",
              "type": "address"
            },
            {
              "internalType": "address payable",
              "name": "issuer",
              "type": "address"
            },
            {
              "internalType": "uint256",
              "name": "tokenAmount",
              "type": "uint256"
            },
            {
              "internalType": "uint256",
              "name": "tokenStatus",
              "type": "uint256"
            }
          ],
          "internalType": "struct HashedPersona.ListedToken",
          "name": "",
          "type": "tuple"
        }
      ],
      "stateMutability": "view",
      "type": "function"
    },
    {
      "inputs": [
        {
          "internalType": "uint256",
          "name": "tokenId",
          "type": "uint256"
        }
      ],
      "name": "getStatus",
      "outputs": [
        {
          "internalType": "uint256",
          "name": "",
          "type": "uint256"
        }
      ],
      "stateMutability": "view",
      "type": "function"
    },
    {
      "inputs": [
        {
          "internalType": "address",
          "name": "owner",
          "type": "address"
        },
        {
          "internalType": "address",
          "name": "operator",
          "type": "address"
        }
      ],
      "name": "isApprovedForAll",
      "outputs": [
        {
          "internalType": "bool",
          "name": "",
          "type": "bool"
        }
      ],
      "stateMutability": "view",
      "type": "function"
    },
    {
      "inputs": [
        {
          "internalType": "uint256",
          "name": "_tokenId",
          "type": "uint256"
        },
        {
          "internalType": "address",
          "name": "_owner",
          "type": "address"
        }
      ],
      "name": "isCollected",
      "outputs": [
        {
          "internalType": "bool",
          "name": "",
          "type": "bool"
        }
      ],
      "stateMutability": "view",
      "type": "function"
    },
    {
      "inputs": [],
      "name": "name",
      "outputs": [
        {
          "internalType": "string",
          "name": "",
          "type": "string"
        }
      ],
      "stateMutability": "view",
      "type": "function"
    },
    {
      "inputs": [
        {
          "internalType": "uint256",
          "name": "tokenId",
          "type": "uint256"
        }
      ],
      "name": "ownerOf",
      "outputs": [
        {
          "internalType": "address",
          "name": "",
          "type": "address"
        }
      ],
      "stateMutability": "view",
      "type": "function"
    },
    {
      "inputs": [
        {
          "internalType": "address",
          "name": "from",
          "type": "address"
        },
        {
          "internalType": "address",
          "name": "to",
          "type": "address"
        },
        {
          "internalType": "uint256",
          "name": "tokenId",
          "type": "uint256"
        }
      ],
      "name": "safeTransferFrom",
      "outputs": [],
      "stateMutability": "nonpayable",
      "type": "function"
    },
    {
      "inputs": [
        {
          "internalType": "address",
          "name": "from",
          "type": "address"
        },
        {
          "internalType": "address",
          "name": "to",
          "type": "address"
        },
        {
          "internalType": "uint256",
          "name": "tokenId",
          "type": "uint256"
        },
        {
          "internalType": "bytes",
          "name": "data",
          "type": "bytes"
        }
      ],
      "name": "safeTransferFrom",
      "outputs": [],
      "stateMutability": "nonpayable",
      "type": "function"
    },
    {
      "inputs": [
        {
          "internalType": "address",
          "name": "operator",
          "type": "address"
        },
        {
          "internalType": "bool",
          "name": "approved",
          "type": "bool"
        }
      ],
      "name": "setApprovalForAll",
      "outputs": [],
      "stateMutability": "nonpayable",
      "type": "function"
    },
    {
      "inputs": [
        {
          "internalType": "string",
          "name": "newURI",
          "type": "string"
        },
        {
          "internalType": "uint256",
          "name": "collectionId",
          "type": "uint256"
        }
      ],
      "name": "setCollectionURI",
      "outputs": [],
      "stateMutability": "nonpayable",
      "type": "function"
    },
    {
      "inputs": [
        {
          "internalType": "address payable",
          "name": "newIssuer",
          "type": "address"
        },
        {
          "internalType": "uint256",
          "name": "collectionId",
          "type": "uint256"
        }
      ],
      "name": "setIssuer",
      "outputs": [],
      "stateMutability": "nonpayable",
      "type": "function"
    },
    {
      "inputs": [
        {
          "internalType": "bool",
          "name": "val",
          "type": "bool"
        }
      ],
      "name": "setPaused",
      "outputs": [],
      "stateMutability": "nonpayable",
      "type": "function"
    },
    {
      "inputs": [
        {
          "internalType": "uint256",
          "name": "tokenId",
          "type": "uint256"
        },
        {
          "internalType": "uint256",
          "name": "newStatus",
          "type": "uint256"
        }
      ],
      "name": "setStatus",
      "outputs": [],
      "stateMutability": "nonpayable",
      "type": "function"
    },
    {
      "inputs": [
        {
          "internalType": "bytes4",
          "name": "interfaceId",
          "type": "bytes4"
        }
      ],
      "name": "supportsInterface",
      "outputs": [
        {
          "internalType": "bool",
          "name": "",
          "type": "bool"
        }
      ],
      "stateMutability": "view",
      "type": "function"
    },
    {
      "inputs": [],
      "name": "symbol",
      "outputs": [
        {
          "internalType": "string",
          "name": "",
          "type": "string"
        }
      ],
      "stateMutability": "view",
      "type": "function"
    },
    {
      "inputs": [
        {
          "internalType": "uint256",
          "name": "tokenId",
          "type": "uint256"
        }
      ],
      "name": "tokenURI",
      "outputs": [
        {
          "internalType": "string",
          "name": "",
          "type": "string"
        }
      ],
      "stateMutability": "view",
      "type": "function"
    },
    {
      "inputs": [
        {
          "internalType": "address",
          "name": "from",
          "type": "address"
        },
        {
          "internalType": "address",
          "name": "to",
          "type": "address"
        },
        {
          "internalType": "uint256",
          "name": "tokenId",
          "type": "uint256"
        }
      ],
      "name": "transferFrom",
      "outputs": [],
      "stateMutability": "nonpayable",
      "type": "function"
    },
    {
      "inputs": [
        {
          "internalType": "uint256",
          "name": "_listPrice",
          "type": "uint256"
        }
      ],
      "name": "updateListPrice",
      "outputs": [],
      "stateMutability": "payable",
      "type": "function"
    },
    {
      "inputs": [],
      "name": "withdraw",
      "outputs": [],
      "stateMutability": "nonpayable",
      "type": "function"
    },
    {
      "stateMutability": "payable",
      "type": "receive"
    }
  ],
  "bytecode": "0x6080604052662386f26fc10000600b55600c805460ff191690553480156200002657600080fd5b50604080518082018252600d81526c486173686564506572736f6e6160981b60208083019182528351808501909452600384526248504360e81b9084015281519192916200007791600091620000ad565b5080516200008d906001906020840190620000ad565b5050600160075550600a80546001600160a01b0319163317905562000190565b828054620000bb9062000153565b90600052602060002090601f016020900481019282620000df57600085556200012a565b82601f10620000fa57805160ff19168380011785556200012a565b828001600101855582156200012a579182015b828111156200012a5782518255916020019190600101906200010d565b50620001389291506200013c565b5090565b5b808211156200013857600081556001016200013d565b600181811c908216806200016857607f821691505b602082108114156200018a57634e487b7160e01b600052602260045260246000fd5b50919050565b612cac80620001a06000396000f3fe6080604052600436106101cf5760003560e01c80635e39de6a116100f6578063a0fcb4361161008f578063c322579c11610061578063c322579c146105b6578063c87b56dd146105c9578063ce3f865f146105e9578063e985e9c5146105fc57005b8063a0fcb43614610536578063a22cb46514610563578063a7618efd14610583578063b88d4fde1461059657005b806382e40813116100c857806382e40813146104b45780638a410b1a146104d45780638e264590146104f457806395d89b411461052157005b80635e39de6a1461042f5780636352211e1461045f57806368f1945f1461047f57806370a082311461049457005b806323b872dd11610168578063401ac2571161013a578063401ac2571461039f57806342842e0e146103bf57806355728d04146103df5780635c622a0e146103ff57005b806323b872dd146103095780632d571cc4146103295780632e0363101461034a5780633ccfd60b1461038a57005b806309cb20a2116101a157806309cb20a2146102875780630f08efe0146102a757806310afee1e146102c957806316c38b3c146102e957005b806301ffc9a7146101d857806306fdde031461020d578063081812fc1461022f578063095ea7b31461026757005b366101d657005b005b3480156101e457600080fd5b506101f86101f336600461274a565b610645565b60405190151581526020015b60405180910390f35b34801561021957600080fd5b50610222610697565b60405161020491906129d6565b34801561023b57600080fd5b5061024f61024a36600461284b565b610729565b6040516001600160a01b039091168152602001610204565b34801561027357600080fd5b506101d661028236600461271e565b610750565b34801561029357600080fd5b506101d66102a2366004612782565b61086b565b3480156102b357600080fd5b506102bc6108b7565b6040516102049190612988565b3480156102d557600080fd5b506102bc6102e43660046125ae565b610af1565b3480156102f557600080fd5b506101d6610304366004612730565b610ce4565b34801561031557600080fd5b506101d661032436600461262d565b610d21565b61033c61033736600461284b565b610d52565b604051908152602001610204565b34801561035657600080fd5b5061033c61036536600461284b565b6000908152600d60209081526040808320600101548352600e90915290206005015490565b34801561039657600080fd5b506101d6610ed5565b3480156103ab57600080fd5b506101f86103ba366004612863565b610f9f565b3480156103cb57600080fd5b506101d66103da36600461262d565b611055565b3480156103eb57600080fd5b506101d66103fa3660046125ca565b611070565b34801561040b57600080fd5b5061033c61041a36600461284b565b6000908152600d602052604090206005015490565b34801561043b57600080fd5b5061033c61044a36600461284b565b6000908152600d602052604090206001015490565b34801561046b57600080fd5b5061024f61047a36600461284b565b6110cb565b34801561048b57600080fd5b50600b5461033c565b3480156104a057600080fd5b5061033c6104af3660046125ae565b61112b565b3480156104c057600080fd5b506101d66104cf366004612887565b6111b1565b3480156104e057600080fd5b506102bc6104ef3660046125ae565b611227565b34801561050057600080fd5b5061051461050f36600461284b565b61148e565b6040516102049190612b22565b34801561052d57600080fd5b506102226114fd565b34801561054257600080fd5b5061055661055136600461284b565b61150c565b6040516102049190612ac0565b34801561056f57600080fd5b506101d661057e3660046126ea565b611642565b61033c6105913660046127f5565b611651565b3480156105a257600080fd5b506101d66105b136600461266d565b611804565b6101d66105c436600461284b565b611836565b3480156105d557600080fd5b506102226105e436600461284b565b6118a3565b6101f86105f736600461284b565b6119b4565b34801561060857600080fd5b506101f86106173660046125f5565b6001600160a01b03918216600090815260056020908152604080832093909416825291909152205460ff1690565b60006001600160e01b031982166380ac58cd60e01b148061067657506001600160e01b03198216635b5e139f60e01b145b8061069157506301ffc9a760e01b6001600160e01b03198316145b92915050565b6060600080546106a690612b9f565b80601f01602080910402602001604051908101604052809291908181526020018280546106d290612b9f565b801561071f5780601f106106f45761010080835404028352916020019161071f565b820191906000526020600020905b81548152906001019060200180831161070257829003601f168201915b5050505050905090565b6000610734826119f7565b506000908152600460205260409020546001600160a01b031690565b600061075b826110cb565b9050806001600160a01b0316836001600160a01b031614156107ce5760405162461bcd60e51b815260206004820152602160248201527f4552433732313a20617070726f76616c20746f2063757272656e74206f776e656044820152603960f91b60648201526084015b60405180910390fd5b336001600160a01b03821614806107ea57506107ea8133610617565b61085c5760405162461bcd60e51b815260206004820152603e60248201527f4552433732313a20617070726f76652063616c6c6572206973206e6f7420746f60448201527f6b656e206f776e6572206e6f7220617070726f76656420666f7220616c6c000060648201526084016107c5565b6108668383611a59565b505050565b600a546001600160a01b031633146108955760405162461bcd60e51b81526004016107c590612a3b565b6000818152600e602052604090206108b19060030184846123d3565b50505050565b606060006108c460085490565b905060008060005b8381101561095457600d60006108e3836001612b30565b815260208101919091526040016000908120600201546001600160a01b031690600d90610911846001612b30565b81526020810191909152604001600020600301546001600160a01b031614156109425761093f600184612b30565b92505b8061094c81612bda565b9150506108cc565b5060008267ffffffffffffffff81111561097e57634e487b7160e01b600052604160045260246000fd5b6040519080825280602002602001820160405280156109b757816020015b6109a4612457565b81526020019060019003908161099c5790505b50905060005b84811015610ae857600d60006109d4836001612b30565b815260208101919091526040016000908120600201546001600160a01b031690600d90610a02846001612b30565b81526020810191909152604001600020600301546001600160a01b03161415610ad6576000610a32826001612b30565b6000818152600d6020908152604091829020825160c0810184528154815260018201549281019290925260028101546001600160a01b03908116938301939093526003810154909216606082015260048201546080820152600582015460a082015285519293509091859087908110610abb57634e487b7160e01b600052603260045260246000fd5b6020908102919091010152610ad1600186612b30565b945050505b80610ae081612bda565b9150506109bd565b50949350505050565b60606000610afe60085490565b905060008060005b83811015610b6a576001600160a01b038616600d6000610b27846001612b30565b81526020810191909152604001600020600201546001600160a01b03161415610b5857610b55600184612b30565b92505b80610b6281612bda565b915050610b06565b5060008267ffffffffffffffff811115610b9457634e487b7160e01b600052604160045260246000fd5b604051908082528060200260200182016040528015610bcd57816020015b610bba612457565b815260200190600190039081610bb25790505b50905060005b84811015610cda576001600160a01b038716600d6000610bf4846001612b30565b81526020810191909152604001600020600201546001600160a01b03161415610cc8576000610c24826001612b30565b6000818152600d6020908152604091829020825160c0810184528154815260018201549281019290925260028101546001600160a01b03908116938301939093526003810154909216606082015260048201546080820152600582015460a082015285519293509091859087908110610cad57634e487b7160e01b600052603260045260246000fd5b6020908102919091010152610cc3600186612b30565b945050505b80610cd281612bda565b915050610bd3565b5095945050505050565b600a546001600160a01b03163314610d0e5760405162461bcd60e51b81526004016107c590612a3b565b600c805460ff1916911515919091179055565b610d2b3382611ac7565b610d475760405162461bcd60e51b81526004016107c590612a72565b610866838383611b45565b6000818152600e602052604081206005018054600191908390610d76908490612b30565b90915550506000828152600e602052604090206005810154600490910154811115610dfa5760405162461bcd60e51b815260206004820152602e60248201527f546f6b656e7320696e207468697320636f6c6c656374696e6f2061726520667560448201526d6c6c7920636f6c6c65637465642160901b60648201526084016107c5565b610e08600880546001019055565b6000610e1360085490565b9050610e1f3382611ce1565b6000848152600e602052604090206003018054610ec4918391610e4190612b9f565b80601f0160208091040260200160405190810160405280929190818152602001828054610e6d90612b9f565b8015610eba5780601f10610e8f57610100808354040283529160200191610eba565b820191906000526020600020905b815481529060010190602001808311610e9d57829003601f168201915b5050505050611cfb565b610ece8185611d95565b9392505050565b600a546001600160a01b03163314610eff5760405162461bcd60e51b81526004016107c590612a3b565b600a546040516001600160a01b03909116904790600090839083908381818185875af1925050503d8060008114610f52576040519150601f19603f3d011682016040523d82523d6000602084013e610f57565b606091505b50509050806108665760405162461bcd60e51b81526020600482015260146024820152732330b4b632b2103a379039b2b7321022ba3432b960611b60448201526064016107c5565b600080610fab60085490565b905060005b8181101561104a576001600160a01b038416600d6000610fd1846001612b30565b81526020810191909152604001600020600201546001600160a01b03161415611038576000611001826001612b30565b6000878152600d6020526040808220600190810154848452919092209091015491925014156110365760019350505050610691565b505b8061104281612bda565b915050610fb0565b506000949350505050565b61086683838360405180602001604052806000815250611804565b600a546001600160a01b0316331461109a5760405162461bcd60e51b81526004016107c590612a3b565b6000908152600e6020526040902060020180546001600160a01b0319166001600160a01b0392909216919091179055565b6000818152600260205260408120546001600160a01b0316806106915760405162461bcd60e51b8152602060048201526018602482015277115490cdcc8c4e881a5b9d985b1a59081d1bdad95b88125160421b60448201526064016107c5565b60006001600160a01b0382166111955760405162461bcd60e51b815260206004820152602960248201527f4552433732313a2061646472657373207a65726f206973206e6f7420612076616044820152683634b21037bbb732b960b91b60648201526084016107c5565b506001600160a01b031660009081526003602052604090205490565b6000828152600d60205260409020600201546001600160a01b031633146112125760405162461bcd60e51b815260206004820152601560248201527413db9b1e481bdddb995c881a5cc8185b1b1bddd959605a1b60448201526064016107c5565b6000918252600d602052604090912060050155565b6060600061123460085490565b905060008060005b838110156112df576001600160a01b038616600d600061125d846001612b30565b81526020810191909152604001600020600301546001600160a01b03161480156112ba57506001600160a01b038616600d600061129b846001612b30565b81526020810191909152604001600020600201546001600160a01b0316145b156112cd576112ca600184612b30565b92505b806112d781612bda565b91505061123c565b5060008267ffffffffffffffff81111561130957634e487b7160e01b600052604160045260246000fd5b60405190808252806020026020018201604052801561134257816020015b61132f612457565b8152602001906001900390816113275790505b50905060005b84811015610cda576001600160a01b038716600d6000611369846001612b30565b81526020810191909152604001600020600301546001600160a01b03161480156113c657506001600160a01b038716600d60006113a7846001612b30565b81526020810191909152604001600020600201546001600160a01b0316145b1561147c5760006113d8826001612b30565b6000818152600d6020908152604091829020825160c0810184528154815260018201549281019290925260028101546001600160a01b03908116938301939093526003810154909216606082015260048201546080820152600582015460a08201528551929350909185908790811061146157634e487b7160e01b600052603260045260246000fd5b6020908102919091010152611477600186612b30565b945050505b8061148681612bda565b915050611348565b611496612457565b506000908152600d6020908152604091829020825160c0810184528154815260018201549281019290925260028101546001600160a01b0390811693830193909352600381015490921660608201526004820154608082015260059091015460a082015290565b6060600180546106a690612b9f565b61154e6040518060c00160405280600081526020016000815260200160006001600160a01b031681526020016060815260200160008152602001600081525090565b6000828152600e6020908152604091829020825160c0810184528154815260018201549281019290925260028101546001600160a01b0316928201929092526003820180549192916060840191906115a590612b9f565b80601f01602080910402602001604051908101604052809291908181526020018280546115d190612b9f565b801561161e5780601f106115f35761010080835404028352916020019161161e565b820191906000526020600020905b81548152906001019060200180831161160157829003601f168201915b50505050508152602001600482015481526020016005820154815250509050919050565b61164d338383611ec2565b5050565b600c5460009060ff16156116a75760405162461bcd60e51b815260206004820152601960248201527f436f6e74726163742063757272656e746c79207061757365640000000000000060448201526064016107c5565b6000821161170b5760405162461bcd60e51b815260206004820152602b60248201527f546f6b656e20616d6f756e7420696e207468697320636f6c6c656374696f6e2060448201526a697320696e76616c69642160a81b60648201526084016107c5565b611719600980546001019055565b600061172460095490565b9050611734600880546001019055565b600061173f60085490565b905061174b3382611ce1565b6117558186611cfb565b6040805160c081018252838152602080820184815233838501908152606084018a8152608085018a9052600160a086018190526000898152600e86529690962085518155925195830195909555516002820180546001600160a01b0319166001600160a01b03909216919091179055925180519293926117db926003850192019061249f565b506080820151600482015560a0909101516005909101556117fc8183611d95565b509392505050565b61180e3383611ac7565b61182a5760405162461bcd60e51b81526004016107c590612a72565b6108b184848484611f91565b600a546001600160a01b0316331461189e5760405162461bcd60e51b815260206004820152602560248201527f4f6e6c792063726561746f722063616e20757064617465206c697374696e6720604482015264707269636560d81b60648201526084016107c5565b600b55565b60606118ae826119f7565b600082815260066020526040812080546118c790612b9f565b80601f01602080910402602001604051908101604052809291908181526020018280546118f390612b9f565b80156119405780601f1061191557610100808354040283529160200191611940565b820191906000526020600020905b81548152906001019060200180831161192357829003601f168201915b50505050509050600061195e60408051602081019091526000815290565b9050805160001415611971575092915050565b8151156119a357808260405160200161198b92919061291c565b60405160208183030381529060405292505050919050565b6119ac84611fc4565b949350505050565b60006119c08233610f9f565b156119cd57506000919050565b6000828152600d60205260409020600101546119e881610d52565b5060019392505050565b919050565b6000818152600260205260409020546001600160a01b0316611a565760405162461bcd60e51b8152602060048201526018602482015277115490cdcc8c4e881a5b9d985b1a59081d1bdad95b88125160421b60448201526064016107c5565b50565b600081815260046020526040902080546001600160a01b0319166001600160a01b0384169081179091558190611a8e826110cb565b6001600160a01b03167f8c5be1e5ebec7d5bd14f71427d1e84f3dd0314c0f7b2291e5b200ac8c7c3b92560405160405180910390a45050565b600080611ad3836110cb565b9050806001600160a01b0316846001600160a01b03161480611b1a57506001600160a01b0380821660009081526005602090815260408083209388168352929052205460ff165b806119ac5750836001600160a01b0316611b3384610729565b6001600160a01b031614949350505050565b826001600160a01b0316611b58826110cb565b6001600160a01b031614611bbc5760405162461bcd60e51b815260206004820152602560248201527f4552433732313a207472616e736665722066726f6d20696e636f72726563742060448201526437bbb732b960d91b60648201526084016107c5565b6001600160a01b038216611c1e5760405162461bcd60e51b8152602060048201526024808201527f4552433732313a207472616e7366657220746f20746865207a65726f206164646044820152637265737360e01b60648201526084016107c5565b611c29600082611a59565b6001600160a01b0383166000908152600360205260408120805460019290611c52908490612b5c565b90915550506001600160a01b0382166000908152600360205260408120805460019290611c80908490612b30565b909155505060008181526002602052604080822080546001600160a01b0319166001600160a01b0386811691821790925591518493918716917fddf252ad1be2c89b69c2b068fc378daa952ba7f163c4a11628f55a4df523b3ef91a4505050565b61164d828260405180602001604052806000815250612037565b6000828152600260205260409020546001600160a01b0316611d765760405162461bcd60e51b815260206004820152602e60248201527f45524337323155524953746f726167653a2055524920736574206f66206e6f6e60448201526d32bc34b9ba32b73a103a37b5b2b760911b60648201526084016107c5565b600082815260066020908152604090912082516108669284019061249f565b6040805160c0810182528381526020808201848152338385018181526000878152600e85528681206002808201546001600160a01b0390811660608a0190815260049384015460808b01908152600160a08c018181528f8852600d909b529b90952099518a55965199890199909955925192870180549389166001600160a01b031994851617905593516003870180549190981692169190911790955593519083015551600590910155611e4a903084611b45565b6000818152600e60209081526040918290206002810154600490910154835185815233938101939093526001600160a01b0390911682840152606082015260016080820152905183917f0f34f3dba774840baa3f443084ef7b7ff3a12dc6e310b300869b998f441ee4a7919081900360a00190a25050565b816001600160a01b0316836001600160a01b03161415611f245760405162461bcd60e51b815260206004820152601960248201527f4552433732313a20617070726f766520746f2063616c6c65720000000000000060448201526064016107c5565b6001600160a01b03838116600081815260056020908152604080832094871680845294825291829020805460ff191686151590811790915591519182527f17307eab39ab6107e8899845ad3d59bd9653f200f220920489ca2b5937696c31910160405180910390a3505050565b611f9c848484611b45565b611fa88484848461206a565b6108b15760405162461bcd60e51b81526004016107c5906129e9565b6060611fcf826119f7565b6000611fe660408051602081019091526000815290565b905060008151116120065760405180602001604052806000815250610ece565b8061201084612177565b60405160200161202192919061291c565b6040516020818303038152906040529392505050565b6120418383612291565b61204e600084848461206a565b6108665760405162461bcd60e51b81526004016107c5906129e9565b60006001600160a01b0384163b1561216c57604051630a85bd0160e11b81526001600160a01b0385169063150b7a02906120ae90339089908890889060040161294b565b602060405180830381600087803b1580156120c857600080fd5b505af19250505080156120f8575060408051601f3d908101601f191682019092526120f591810190612766565b60015b612152573d808015612126576040519150601f19603f3d011682016040523d82523d6000602084013e61212b565b606091505b50805161214a5760405162461bcd60e51b81526004016107c5906129e9565b805181602001fd5b6001600160e01b031916630a85bd0160e11b1490506119ac565b506001949350505050565b60608161219b5750506040805180820190915260018152600360fc1b602082015290565b8160005b81156121c557806121af81612bda565b91506121be9050600a83612b48565b915061219f565b60008167ffffffffffffffff8111156121ee57634e487b7160e01b600052604160045260246000fd5b6040519080825280601f01601f191660200182016040528015612218576020820181803683370190505b5090505b84156119ac5761222d600183612b5c565b915061223a600a86612bf5565b612245906030612b30565b60f81b81838151811061226857634e487b7160e01b600052603260045260246000fd5b60200101906001600160f81b031916908160001a90535061228a600a86612b48565b945061221c565b6001600160a01b0382166122e75760405162461bcd60e51b815260206004820181905260248201527f4552433732313a206d696e7420746f20746865207a65726f206164647265737360448201526064016107c5565b6000818152600260205260409020546001600160a01b03161561234c5760405162461bcd60e51b815260206004820152601c60248201527f4552433732313a20746f6b656e20616c7265616479206d696e7465640000000060448201526064016107c5565b6001600160a01b0382166000908152600360205260408120805460019290612375908490612b30565b909155505060008181526002602052604080822080546001600160a01b0319166001600160a01b03861690811790915590518392907fddf252ad1be2c89b69c2b068fc378daa952ba7f163c4a11628f55a4df523b3ef908290a45050565b8280546123df90612b9f565b90600052602060002090601f0160209004810192826124015760008555612447565b82601f1061241a5782800160ff19823516178555612447565b82800160010185558215612447579182015b8281111561244757823582559160200191906001019061242c565b50612453929150612513565b5090565b6040518060c00160405280600081526020016000815260200160006001600160a01b0316815260200160006001600160a01b0316815260200160008152602001600081525090565b8280546124ab90612b9f565b90600052602060002090601f0160209004810192826124cd5760008555612447565b82601f106124e657805160ff1916838001178555612447565b82800160010185558215612447579182015b828111156124475782518255916020019190600101906124f8565b5b808211156124535760008155600101612514565b600067ffffffffffffffff8084111561254357612543612c35565b604051601f8501601f19908116603f0116810190828211818310171561256b5761256b612c35565b8160405280935085815286868601111561258457600080fd5b858560208301376000602087830101525050509392505050565b803580151581146119f257600080fd5b6000602082840312156125bf578081fd5b8135610ece81612c4b565b600080604083850312156125dc578081fd5b82356125e781612c4b565b946020939093013593505050565b60008060408385031215612607578182fd5b823561261281612c4b565b9150602083013561262281612c4b565b809150509250929050565b600080600060608486031215612641578081fd5b833561264c81612c4b565b9250602084013561265c81612c4b565b929592945050506040919091013590565b60008060008060808587031215612682578081fd5b843561268d81612c4b565b9350602085013561269d81612c4b565b925060408501359150606085013567ffffffffffffffff8111156126bf578182fd5b8501601f810187136126cf578182fd5b6126de87823560208401612528565b91505092959194509250565b600080604083850312156126fc578182fd5b823561270781612c4b565b91506127156020840161259e565b90509250929050565b600080604083850312156125dc578182fd5b600060208284031215612741578081fd5b610ece8261259e565b60006020828403121561275b578081fd5b8135610ece81612c60565b600060208284031215612777578081fd5b8151610ece81612c60565b600080600060408486031215612796578283fd5b833567ffffffffffffffff808211156127ad578485fd5b818601915086601f8301126127c0578485fd5b8135818111156127ce578586fd5b8760208285010111156127df578586fd5b6020928301989097509590910135949350505050565b60008060408385031215612807578182fd5b823567ffffffffffffffff81111561281d578283fd5b8301601f8101851361282d578283fd5b61283c85823560208401612528565b95602094909401359450505050565b60006020828403121561285c578081fd5b5035919050565b60008060408385031215612875578182fd5b82359150602083013561262281612c4b565b60008060408385031215612899578182fd5b50508035926020909101359150565b600081518084526128c0816020860160208601612b73565b601f01601f19169290920160200192915050565b8051825260208101516020830152604081015160018060a01b03808216604085015280606084015116606085015250506080810151608083015260a081015160a08301525050565b6000835161292e818460208801612b73565b835190830190612942818360208801612b73565b01949350505050565b6001600160a01b038581168252841660208201526040810183905260806060820181905260009061297e908301846128a8565b9695505050505050565b6020808252825182820181905260009190848201906040850190845b818110156129ca576129b78385516128d4565b9284019260c092909201916001016129a4565b50909695505050505050565b602081526000610ece60208301846128a8565b60208082526032908201527f4552433732313a207472616e7366657220746f206e6f6e20455243373231526560408201527131b2b4bb32b91034b6b83632b6b2b73a32b960711b606082015260800190565b60208082526017908201527f4f6e6c792063726561746f7220697320616c6c6f776564000000000000000000604082015260600190565b6020808252602e908201527f4552433732313a2063616c6c6572206973206e6f7420746f6b656e206f776e6560408201526d1c881b9bdc88185c1c1c9bdd995960921b606082015260800190565b60208152815160208201526020820151604082015260018060a01b0360408301511660608201526000606083015160c06080840152612b0260e08401826128a8565b9050608084015160a084015260a084015160c08401528091505092915050565b60c0810161069182846128d4565b60008219821115612b4357612b43612c09565b500190565b600082612b5757612b57612c1f565b500490565b600082821015612b6e57612b6e612c09565b500390565b60005b83811015612b8e578181015183820152602001612b76565b838111156108b15750506000910152565b600181811c90821680612bb357607f821691505b60208210811415612bd457634e487b7160e01b600052602260045260246000fd5b50919050565b6000600019821415612bee57612bee612c09565b5060010190565b600082612c0457612c04612c1f565b500690565b634e487b7160e01b600052601160045260246000fd5b634e487b7160e01b600052601260045260246000fd5b634e487b7160e01b600052604160045260246000fd5b6001600160a01b0381168114611a5657600080fd5b6001600160e01b031981168114611a5657600080fdfea264697066735822122030fd10128174f367eea26fade4a584695c2a31524a40188a37026124646bb4dc64736f6c63430008040033",
  "linkReferences": {},
  "deployedLinkReferences": {}
}